:10000000020125020112758000E4F520F521E521A9
:1000100024C0E5206480347F500280028002801B6F
:100020007580000521E52170020520E52124C0E549
:10003000206480347F5002800280E57520007521A5
:1000400040E5212401E5206480347F500280028055
:1000500002801F852180E5212403F521E52034005D
:10006000F520E5212401E5206480347F50028002E0
:1000700080E1752000752180E521243FE520648022
:10008000347F500280028002801B7580C10521E50B
:100090002170020520E521243FE5206480347F5053
:1000A00002800280E57520007521C1E521247AE5F2
:1000B000206480347F400280028002801F8521807E
:1000C000E52124FEF521E52034FFF520E521247A01
:1000D000E5206480347F4002800280E1E4F520F571
:1000E00021E521247BE5206480347F50028002805A
:1000F00002801B7580000521E52170020520E521A5
:10010000247BE5206480347F5002800280E5020079
:100110000922020006E4F5D0758122F520F52112AE
:080120000003020000020115BA
:00000001FF
