:1000000002008AE5836003E49322A882E622E58366
:100010006004E4938003A882E6F822E5836004E4A8
:10002000938003A882E6F922E5836004E4938003C9
:10003000A882E6FA22E5836004E4938003A882E6BE
:10004000FB22E5836004E4938003A882E6FC22E5BA
:10005000836004E4938003A882E6FD22E5836004C4
:10006000E4938003A882E6FE22E5836004E49380A3
:1000700003A882E6FF22E4F5D075812C78207A0C63
:0D008000F608DAFC12012E020000020076E4
:10010000326E64206C696E650048656C6C6F21000E
:10011000800BC2A2D2A18D80D2A0C2A02280F38087
:100120000BC2A2C2A18D80D2A0C2A02280F3020382
:1001300022E4F520F521E4F522F523E4F524F52564
:10014000E4F526F527752801752909752A01752B0F
:10015000007DC012011F752000752108E4F522F50D
:1001600023E52324FAE5226480347F500280028054
:1001700002802FE5232529F582E5223528F5831213
:10018000004F1201107D201201100523E52370029B
:100190000522E52324FAE5226480347F50028002A0
:1001A00080D17D0412011FC3E52595218520F063D0
:1001B000F080E524648095F05002800280497D94AF
:1001C00012011FE4F522F5238023E525C39523FDC5
:1001D000E5249522FCED252BF582EC352AF58312DA
:1001E000004F1201100523E52370020522C3E52507
:1001F00095238522F063F080E524648095F0500219
:10020000800280C6020316E52524ECE524648034D0
:100210007F4002800280607494C39525FAE5212A0C
:1002200024FFFD12011F7D20120110E4F522F523A9
:10023000802BE521C39523FDE5209522FCED252BA0
:10024000FDEC352AFCED24FFF582EC34FFF583123A
:10025000004F1201100523E52370020522C3E52398
:1002600095218520F063F080E522648095F04002BE
:10027000800280BE020316E52524ECFDE52434FF50
:10028000FCC3ED95218520F063F080EC648095F04F
:1002900050028002807AE52524ECF527E52434FF1E
:1002A000F526E5212480C3952724FFFD12011F7D3B
:1002B00020120110E4F522F523802BE521C39523BC
:1002C000FDE5209522FCED252BFDEC352AFCED24E7
:1002D000FFF582EC34FFF58312004F120110052365
:1002E000E52370020522E521C39527FDE52095262B
:1002F000FCED24FFFDEC34FFFCC3E5239D8CF06393
:10030000F080E522648095F04002800280AD800696
:100310007524FF7525FF0525E525700205240201DA
:05032000A722020131DB
:00000001FF
