:100000000200CBE5836003E49322A882E622E58325
:100010006004E4938003A882E6F822E5836004E4A8
:10002000938003A882E6F922E5836004E4938003C9
:10003000A882E6FA22E5836004E4938003A882E6BE
:10004000FB22E5836004E4938003A882E6FC22E5BA
:10005000836004E4938003A882E6FD22E5836004C4
:10006000E4938003A882E6FE22E5836004E49380A3
:1000700003A882E6FF22898288838B00EC4D6036DC
:10008000E4E0F608A31DBDFFF31C80F0B800118B5F
:1000900000EC4D6021E7F609081DBDFFF41C80F15E
:1000A000898288838B00EC4D600CE493F608A31DD5
:1000B000BDFFF31C80F022E4F5D075816378207ACF
:0E00C00043F608DAFC12015D0200000200B7F0
:10010000FEFDFBF7001E1D1B1700015B0158015689
:10011000015401520150014E014C014A014801466F
:10012000014401420140013E013C0000000000008A
:100130000000000000000000000000004600450034
:1001400044004300420041003900380037003600C7
:100150003500340033003200310030300002027CC0
:1001600075220075240075250175265A78017900DD
:100170007A007B277D057C0012008C780179057A56
:10018000007B2C7D057C0012008C7801790A7A00B6
:100190007B317D327C0012008C752000E52024FC30
:1001A000500280028003020278742CA92078002972
:1001B000F987B0752100E52124FC500280028003FC
:1001C00002026B7427A921780029F9E7B590028013
:1001D0000302025E75803875A00175A00075800667
:1001E00075A000E52175F004A42520500205F0A8B3
:1001F000F0A9E0E9C333F9E833F8743129F9872528
:10020000098726752000E52024FF50028002800225
:10021000804C752300E52324F65002800280028082
:10022000310524E52424F7500280028019E52025B9
:1002300026F582E43525F583120003F58075A003C9
:1002400075A0027524000523E52324F650028002E0
:1002500080CF0520E52024FF5002800280B40521D4
:10026000E52124FC500280030201C30520E520247F
:0F027000FC500280030201A902019922020160E1
:00000001FF
