:100000000200E380208DE07598CC758920758DFF06
:10001000758BFFD28E8D998D3680003099028002CB
:1000200080F9C2992280DE0200CCE4F520F521E4BB
:10003000F522F523780179007A007B247D097C0084
:10004000120128780179097A007B2D7D097C001244
:100050000128758780E4F520F521E52124F7E520C6
:1000600034FF500280028002802074242521F98709
:10007000051200030521E52170020520E52124F782
:10008000E52034FF5002800280E07D02120003E48C
:10009000F520F521E52124F7E52034FF5002800208
:1000A00080028020742D2521F98705120003052187
:1000B000E52170020520E52124F7E52034FF5002F8
:1000C000800280E07D0212000380FE2202002AE40A
:1000D000F5D075813778207A17F608DAFC120027F8
:0600E0000200000200CF47
:1001000064656E69736F76612020706F6C696E61D3
:100110002020898288838B00EC4D6036E4E0F6086D
:10012000A31DBDFFF31C80F0B800118B00EC4D60E7
:1001300021E7F609081DBDFFF41C80F18982888340
:100140008B00EC4D600CE493F608A31DBDFFF31C7F
:0301500080F0221A
:00000001FF
