:100000000200FD804CE4F52CF52D8C2E8D2F8020E8
:10001000758C00758A00D28C8000E58C243D5002DE
:10002000800280F6C28CC28D052DE52D7002052C54
:100030007C007D28AA2EAB2F1200CBC3E52D9B8A16
:10004000F063F080E52C648095F04002800280C06F
:100050002280B2807475890175220675236075242B
:100060000175251875268075270A75280A75291EB9
:10007000752A32752B46E4F520F521E52124FBE5B0
:10008000206480347F5002800280028036742225F2
:1000900021F987907CC37D5074272521F9E7FB7AED
:1000A000001200CB8A048B051200030521E52170A4
:1000B000020520E52124FBE5206480347F50028086
:1000C0000280CA75900080FE22808AC000C001EDC7
:1000D0008BF0A4F8A9F0ED8AF0A429F9EC8BF0A438
:1000E00029FAE8FBD001D00022E4F5D07581307800
:1000F000207A10F608DAFC1200530200000200E930
:00000001FF
